{
  "contractName": "BimsToken",
  "abi": [
    {
      "constant": true,
      "inputs": [],
      "name": "totalSupply",
      "outputs": [
        {
          "name": "",
          "type": "uint256"
        }
      ],
      "payable": false,
      "stateMutability": "view",
      "type": "function"
    },
    {
      "inputs": [],
      "payable": false,
      "stateMutability": "nonpayable",
      "type": "constructor"
    }
  ],
  "bytecode": "0x608060405234801561001057600080fd5b506305f5e100600081905550609e8061002a6000396000f300608060405260043610603f576000357c0100000000000000000000000000000000000000000000000000000000900463ffffffff16806318160ddd146044575b600080fd5b348015604f57600080fd5b506056606c565b6040518082815260200191505060405180910390f35b600054815600a165627a7a723058204a46aab54f58648ea354ad99a28103b6c48c1f22177514cc20d466a60a8154dc0029",
  "source": "pragma solidity ^0.4.2;\n\ncontract BimsToken {\n\n    uint256 public totalSupply;\n\n    function BimsToken() public{\n        totalSupply = 100000000;\n    }\n}",
  "sourcePath": "/Users/bintangblue/Documents/bimstoken/BimsToken/contracts/BimsToken.sol",
  "compiler": {
    "name": "solc",
    "version": "0.4.24+commit.e67f0147.Emscripten.clang"
  },
  "schemaVersion": "2.0.1",
  "updatedAt": "2018-12-18T07:49:48.504Z"
}